{
  "_format": "hh-sol-artifact-1",
  "contractName": "Storix",
  "sourceName": "contracts/Storix/Storix.sol",
  "abi": [
    {
      "anonymous": false,
      "inputs": [
        {
          "indexed": false,
          "internalType": "address payable",
          "name": "file_owner",
          "type": "address"
        },
        {
          "indexed": false,
          "internalType": "address",
          "name": "file_receiver",
          "type": "address"
        },
        {
          "indexed": false,
          "internalType": "string",
          "name": "file_name",
          "type": "string"
        },
        {
          "indexed": false,
          "internalType": "string",
          "name": "file_path",
          "type": "string"
        },
        {
          "indexed": false,
          "internalType": "string",
          "name": "file_uid",
          "type": "string"
        },
        {
          "indexed": false,
          "internalType": "string",
          "name": "file_type",
          "type": "string"
        },
        {
          "indexed": false,
          "internalType": "uint256",
          "name": "file_size",
          "type": "uint256"
        }
      ],
      "name": "FileShared",
      "type": "event"
    },
    {
      "anonymous": false,
      "inputs": [
        {
          "indexed": false,
          "internalType": "address payable",
          "name": "file_owner",
          "type": "address"
        },
        {
          "indexed": false,
          "internalType": "string",
          "name": "file_name",
          "type": "string"
        },
        {
          "indexed": false,
          "internalType": "string",
          "name": "file_path",
          "type": "string"
        },
        {
          "indexed": false,
          "internalType": "string",
          "name": "file_uid",
          "type": "string"
        },
        {
          "indexed": false,
          "internalType": "string",
          "name": "file_type",
          "type": "string"
        },
        {
          "indexed": false,
          "internalType": "uint256",
          "name": "file_size",
          "type": "uint256"
        }
      ],
      "name": "FileUploaded",
      "type": "event"
    },
    {
      "inputs": [
        {
          "internalType": "string",
          "name": "uid",
          "type": "string"
        }
      ],
      "name": "deleteFile",
      "outputs": [],
      "stateMutability": "payable",
      "type": "function"
    },
    {
      "inputs": [],
      "name": "getFiles",
      "outputs": [
        {
          "components": [
            {
              "internalType": "address payable",
              "name": "file_owner",
              "type": "address"
            },
            {
              "internalType": "string",
              "name": "file_name",
              "type": "string"
            },
            {
              "internalType": "string",
              "name": "file_path",
              "type": "string"
            },
            {
              "internalType": "string",
              "name": "file_uid",
              "type": "string"
            },
            {
              "internalType": "string",
              "name": "file_type",
              "type": "string"
            },
            {
              "internalType": "uint256",
              "name": "file_size",
              "type": "uint256"
            }
          ],
          "internalType": "struct Storix.File[]",
          "name": "",
          "type": "tuple[]"
        }
      ],
      "stateMutability": "view",
      "type": "function"
    },
    {
      "inputs": [
        {
          "internalType": "address",
          "name": "receiver",
          "type": "address"
        },
        {
          "internalType": "string",
          "name": "_file_path",
          "type": "string"
        },
        {
          "internalType": "string",
          "name": "_file_name",
          "type": "string"
        },
        {
          "internalType": "string",
          "name": "_file_uid",
          "type": "string"
        },
        {
          "internalType": "string",
          "name": "_file_type",
          "type": "string"
        },
        {
          "internalType": "uint256",
          "name": "_file_size",
          "type": "uint256"
        }
      ],
      "name": "shareFile",
      "outputs": [],
      "stateMutability": "payable",
      "type": "function"
    },
    {
      "inputs": [
        {
          "internalType": "string",
          "name": "_file_path",
          "type": "string"
        },
        {
          "internalType": "string",
          "name": "_file_name",
          "type": "string"
        },
        {
          "internalType": "string",
          "name": "_file_uid",
          "type": "string"
        },
        {
          "internalType": "string",
          "name": "_file_type",
          "type": "string"
        },
        {
          "internalType": "uint256",
          "name": "_file_size",
          "type": "uint256"
        }
      ],
      "name": "uploadFile",
      "outputs": [],
      "stateMutability": "payable",
      "type": "function"
    },
    {
      "inputs": [
        {
          "components": [
            {
              "internalType": "address payable",
              "name": "file_owner",
              "type": "address"
            },
            {
              "internalType": "string",
              "name": "file_name",
              "type": "string"
            },
            {
              "internalType": "string",
              "name": "file_path",
              "type": "string"
            },
            {
              "internalType": "string",
              "name": "file_uid",
              "type": "string"
            },
            {
              "internalType": "string",
              "name": "file_type",
              "type": "string"
            },
            {
              "internalType": "uint256",
              "name": "file_size",
              "type": "uint256"
            }
          ],
          "internalType": "struct Storix.File[]",
          "name": "_files",
          "type": "tuple[]"
        }
      ],
      "name": "uploadMultipleFiles",
      "outputs": [],
      "stateMutability": "payable",
      "type": "function"
    }
  ],
  "bytecode": "0x608060405234801561001057600080fd5b50611a99806100206000396000f3fe60806040526004361061004a5760003560e01c80632da96d731461004f5780635b296fd11461007a578063a991005414610096578063ca00cb80146100b2578063e12dad57146100ce575b600080fd5b34801561005b57600080fd5b506100646100ea565b6040516100719190611740565b60405180910390f35b610094600480360381019061008f91906112e7565b61042d565b005b6100b060048036038101906100ab91906112a6565b610665565b005b6100cc60048036038101906100c7919061117c565b61086e565b005b6100e860048036038101906100e39190611265565b610aa9565b005b60606000803373ffffffffffffffffffffffffffffffffffffffff1673ffffffffffffffffffffffffffffffffffffffff168152602001908152602001600020805480602002602001604051908101604052809291908181526020016000905b8282101561042457838290600052602060002090600602016040518060c00160405290816000820160009054906101000a900473ffffffffffffffffffffffffffffffffffffffff1673ffffffffffffffffffffffffffffffffffffffff1673ffffffffffffffffffffffffffffffffffffffff1681526020016001820180546101d390611905565b80601f01602080910402602001604051908101604052809291908181526020018280546101ff90611905565b801561024c5780601f106102215761010080835404028352916020019161024c565b820191906000526020600020905b81548152906001019060200180831161022f57829003601f168201915b5050505050815260200160028201805461026590611905565b80601f016020809104026020016040519081016040528092919081815260200182805461029190611905565b80156102de5780601f106102b3576101008083540402835291602001916102de565b820191906000526020600020905b8154815290600101906020018083116102c157829003601f168201915b505050505081526020016003820180546102f790611905565b80601f016020809104026020016040519081016040528092919081815260200182805461032390611905565b80156103705780601f1061034557610100808354040283529160200191610370565b820191906000526020600020905b81548152906001019060200180831161035357829003601f168201915b5050505050815260200160048201805461038990611905565b80601f01602080910402602001604051908101604052809291908181526020018280546103b590611905565b80156104025780601f106103d757610100808354040283529160200191610402565b820191906000526020600020905b8154815290600101906020018083116103e557829003601f168201915b505050505081526020016005820154815250508152602001906001019061014a565b50505050905090565b600085511161043b57600080fd5b600082511161044957600080fd5b600084511161045757600080fd5b600083511161046557600080fd5b600073ffffffffffffffffffffffffffffffffffffffff163373ffffffffffffffffffffffffffffffffffffffff16141561049f57600080fd5b600081116104ac57600080fd5b6000803373ffffffffffffffffffffffffffffffffffffffff1673ffffffffffffffffffffffffffffffffffffffff1681526020019081526020016000206040518060c001604052803373ffffffffffffffffffffffffffffffffffffffff16815260200186815260200187815260200185815260200184815260200183815250908060018154018082558091505060019003906000526020600020906006020160009091909190915060008201518160000160006101000a81548173ffffffffffffffffffffffffffffffffffffffff021916908373ffffffffffffffffffffffffffffffffffffffff16021790555060208201518160010190805190602001906105b9929190610e6f565b5060408201518160020190805190602001906105d6929190610e6f565b5060608201518160030190805190602001906105f3929190610e6f565b506080820151816004019080519060200190610610929190610e6f565b5060a0820151816005015550507f19a614f153a9aa9a031bd73a3f643e4a1d3573c83763980cc3b7fe9915a74687338587868686604051610656969594939291906116c3565b60405180910390a15050505050565b6000805b6000803373ffffffffffffffffffffffffffffffffffffffff1673ffffffffffffffffffffffffffffffffffffffff168152602001908152602001600020805490508110156107735782805190602001206000803373ffffffffffffffffffffffffffffffffffffffff1673ffffffffffffffffffffffffffffffffffffffff1681526020019081526020016000208281548110610730577f4e487b7100000000000000000000000000000000000000000000000000000000600052603260045260246000fd5b906000526020600020906006020160030160405161074e9190611621565b60405180910390201415610760578091505b808061076b90611937565b915050610669565b506000803373ffffffffffffffffffffffffffffffffffffffff1673ffffffffffffffffffffffffffffffffffffffff16815260200190815260200160002081815481106107ea577f4e487b7100000000000000000000000000000000000000000000000000000000600052603260045260246000fd5b9060005260206000209060060201600080820160006101000a81549073ffffffffffffffffffffffffffffffffffffffff02191690556001820160006108309190610ef5565b6002820160006108409190610ef5565b6003820160006108509190610ef5565b6004820160006108609190610ef5565b600582016000905550505050565b600085511161087c57600080fd5b600082511161088a57600080fd5b600084511161089857600080fd5b60008351116108a657600080fd5b600073ffffffffffffffffffffffffffffffffffffffff168673ffffffffffffffffffffffffffffffffffffffff1614156108e057600080fd5b600081116108ed57600080fd5b6000808773ffffffffffffffffffffffffffffffffffffffff1673ffffffffffffffffffffffffffffffffffffffff1681526020019081526020016000206040518060c001604052803373ffffffffffffffffffffffffffffffffffffffff16815260200186815260200187815260200185815260200184815260200183815250908060018154018082558091505060019003906000526020600020906006020160009091909190915060008201518160000160006101000a81548173ffffffffffffffffffffffffffffffffffffffff021916908373ffffffffffffffffffffffffffffffffffffffff16021790555060208201518160010190805190602001906109fa929190610e6f565b506040820151816002019080519060200190610a17929190610e6f565b506060820151816003019080519060200190610a34929190610e6f565b506080820151816004019080519060200190610a51929190610e6f565b5060a0820151816005015550507f362b2cdf3626ce284a196f0983ad9f65531eafdbced6498458b208f85bc49e2b33878688878787604051610a999796959493929190611638565b60405180910390a1505050505050565b60005b8151811015610e6b576000828281518110610af0577f4e487b7100000000000000000000000000000000000000000000000000000000600052603260045260246000fd5b60200260200101516040015190506000838381518110610b39577f4e487b7100000000000000000000000000000000000000000000000000000000600052603260045260246000fd5b60200260200101516080015190506000848481518110610b82577f4e487b7100000000000000000000000000000000000000000000000000000000600052603260045260246000fd5b602002602001015160a0015190506000858581518110610bcb577f4e487b7100000000000000000000000000000000000000000000000000000000600052603260045260246000fd5b60200260200101516020015190506000868681518110610c14577f4e487b7100000000000000000000000000000000000000000000000000000000600052603260045260246000fd5b60200260200101516060015190506000855111610c3057600080fd5b6000845111610c3e57600080fd5b6000825111610c4c57600080fd5b6000815111610c5a57600080fd5b600073ffffffffffffffffffffffffffffffffffffffff163373ffffffffffffffffffffffffffffffffffffffff161415610c9457600080fd5b60008311610ca157600080fd5b6000803373ffffffffffffffffffffffffffffffffffffffff1673ffffffffffffffffffffffffffffffffffffffff1681526020019081526020016000206040518060c001604052803373ffffffffffffffffffffffffffffffffffffffff16815260200184815260200187815260200183815260200186815260200185815250908060018154018082558091505060019003906000526020600020906006020160009091909190915060008201518160000160006101000a81548173ffffffffffffffffffffffffffffffffffffffff021916908373ffffffffffffffffffffffffffffffffffffffff1602179055506020820151816001019080519060200190610dae929190610e6f565b506040820151816002019080519060200190610dcb929190610e6f565b506060820151816003019080519060200190610de8929190610e6f565b506080820151816004019080519060200190610e05929190610e6f565b5060a0820151816005015550507f19a614f153a9aa9a031bd73a3f643e4a1d3573c83763980cc3b7fe9915a74687338387848888604051610e4b969594939291906116c3565b60405180910390a150505050508080610e6390611937565b915050610aac565b5050565b828054610e7b90611905565b90600052602060002090601f016020900481019282610e9d5760008555610ee4565b82601f10610eb657805160ff1916838001178555610ee4565b82800160010185558215610ee4579182015b82811115610ee3578251825591602001919060010190610ec8565b5b509050610ef19190610f35565b5090565b508054610f0190611905565b6000825580601f10610f135750610f32565b601f016020900490600052602060002090810190610f319190610f35565b5b50565b5b80821115610f4e576000816000905550600101610f36565b5090565b6000610f65610f6084611793565b611762565b9050808382526020820190508260005b85811015610fa55781358501610f8b888261106b565b845260208401935060208301925050600181019050610f75565b5050509392505050565b6000610fc2610fbd846117bf565b611762565b905082815260208101848484011115610fda57600080fd5b610fe58482856118c3565b509392505050565b600081359050610ffc81611a1e565b92915050565b60008135905061101181611a35565b92915050565b600082601f83011261102857600080fd5b8135611038848260208601610f52565b91505092915050565b600082601f83011261105257600080fd5b8135611062848260208601610faf565b91505092915050565b600060c0828403121561107d57600080fd5b61108760c0611762565b9050600061109784828501611002565b600083015250602082013567ffffffffffffffff8111156110b757600080fd5b6110c384828501611041565b602083015250604082013567ffffffffffffffff8111156110e357600080fd5b6110ef84828501611041565b604083015250606082013567ffffffffffffffff81111561110f57600080fd5b61111b84828501611041565b606083015250608082013567ffffffffffffffff81111561113b57600080fd5b61114784828501611041565b60808301525060a061115b84828501611167565b60a08301525092915050565b60008135905061117681611a4c565b92915050565b60008060008060008060c0878903121561119557600080fd5b60006111a389828a01610fed565b965050602087013567ffffffffffffffff8111156111c057600080fd5b6111cc89828a01611041565b955050604087013567ffffffffffffffff8111156111e957600080fd5b6111f589828a01611041565b945050606087013567ffffffffffffffff81111561121257600080fd5b61121e89828a01611041565b935050608087013567ffffffffffffffff81111561123b57600080fd5b61124789828a01611041565b92505060a061125889828a01611167565b9150509295509295509295565b60006020828403121561127757600080fd5b600082013567ffffffffffffffff81111561129157600080fd5b61129d84828501611017565b91505092915050565b6000602082840312156112b857600080fd5b600082013567ffffffffffffffff8111156112d257600080fd5b6112de84828501611041565b91505092915050565b600080600080600060a086880312156112ff57600080fd5b600086013567ffffffffffffffff81111561131957600080fd5b61132588828901611041565b955050602086013567ffffffffffffffff81111561134257600080fd5b61134e88828901611041565b945050604086013567ffffffffffffffff81111561136b57600080fd5b61137788828901611041565b935050606086013567ffffffffffffffff81111561139457600080fd5b6113a088828901611041565b92505060806113b188828901611167565b9150509295509295909350565b60006113ca8383611565565b905092915050565b6113db81611887565b82525050565b6113ea81611887565b82525050565b6113f981611875565b82525050565b600061140a82611814565b6114148185611837565b935083602082028501611426856117ef565b8060005b85811015611462578484038952815161144385826113be565b945061144e8361182a565b925060208a0199505060018101905061142a565b50829750879550505050505092915050565b6000815461148181611905565b61148b8186611848565b945060018216600081146114a657600181146114b7576114ea565b60ff198316865281860193506114ea565b6114c0856117ff565b60005b838110156114e2578154818901526001820191506020810190506114c3565b838801955050505b50505092915050565b60006114fe8261181f565b6115088185611853565b93506115188185602086016118d2565b61152181611a0d565b840191505092915050565b60006115378261181f565b6115418185611864565b93506115518185602086016118d2565b61155a81611a0d565b840191505092915050565b600060c08301600083015161157d60008601826113d2565b506020830151848203602086015261159582826114f3565b915050604083015184820360408601526115af82826114f3565b915050606083015184820360608601526115c982826114f3565b915050608083015184820360808601526115e382826114f3565b91505060a08301516115f860a0860182611603565b508091505092915050565b61160c816118b9565b82525050565b61161b816118b9565b82525050565b600061162d8284611474565b915081905092915050565b600060e08201905061164d600083018a6113e1565b61165a60208301896113f0565b818103604083015261166c818861152c565b90508181036060830152611680818761152c565b90508181036080830152611694818661152c565b905081810360a08301526116a8818561152c565b90506116b760c0830184611612565b98975050505050505050565b600060c0820190506116d860008301896113e1565b81810360208301526116ea818861152c565b905081810360408301526116fe818761152c565b90508181036060830152611712818661152c565b90508181036080830152611726818561152c565b905061173560a0830184611612565b979650505050505050565b6000602082019050818103600083015261175a81846113ff565b905092915050565b6000604051905081810181811067ffffffffffffffff82111715611789576117886119de565b5b8060405250919050565b600067ffffffffffffffff8211156117ae576117ad6119de565b5b602082029050602081019050919050565b600067ffffffffffffffff8211156117da576117d96119de565b5b601f19601f8301169050602081019050919050565b6000819050602082019050919050565b60008190508160005260206000209050919050565b600081519050919050565b600081519050919050565b6000602082019050919050565b600082825260208201905092915050565b600081905092915050565b600082825260208201905092915050565b600082825260208201905092915050565b600061188082611899565b9050919050565b600061189282611899565b9050919050565b600073ffffffffffffffffffffffffffffffffffffffff82169050919050565b6000819050919050565b82818337600083830152505050565b60005b838110156118f05780820151818401526020810190506118d5565b838111156118ff576000848401525b50505050565b6000600282049050600182168061191d57607f821691505b60208210811415611931576119306119af565b5b50919050565b6000611942826118b9565b91507fffffffffffffffffffffffffffffffffffffffffffffffffffffffffffffffff82141561197557611974611980565b5b600182019050919050565b7f4e487b7100000000000000000000000000000000000000000000000000000000600052601160045260246000fd5b7f4e487b7100000000000000000000000000000000000000000000000000000000600052602260045260246000fd5b7f4e487b7100000000000000000000000000000000000000000000000000000000600052604160045260246000fd5b6000601f19601f8301169050919050565b611a2781611875565b8114611a3257600080fd5b50565b611a3e81611887565b8114611a4957600080fd5b50565b611a55816118b9565b8114611a6057600080fd5b5056fea264697066735822122083efb85b6fad085ec0d4c86f46fd4ac582936fe7d03193b56d9e0f4b0a14263c64736f6c63430008000033",
  "linkReferences": {},
  "deployedLinkReferences": {}
}